{
	"contracts/HotelRoom.sol": {
		"HotelRoom": {
			"abi": [
				{
					"inputs": [],
					"stateMutability": "nonpayable",
					"type": "constructor"
				},
				{
					"anonymous": false,
					"inputs": [
						{
							"indexed": false,
							"internalType": "address",
							"name": "_occupant",
							"type": "address"
						},
						{
							"indexed": false,
							"internalType": "uint256",
							"name": "_value",
							"type": "uint256"
						}
					],
					"name": "Occupy",
					"type": "event"
				},
				{
					"inputs": [],
					"name": "book",
					"outputs": [],
					"stateMutability": "payable",
					"type": "function"
				},
				{
					"inputs": [],
					"name": "currentStatus",
					"outputs": [
						{
							"internalType": "enum HotelRoom.Status",
							"name": "",
							"type": "uint8"
						}
					],
					"stateMutability": "view",
					"type": "function"
				},
				{
					"inputs": [],
					"name": "owner",
					"outputs": [
						{
							"internalType": "address payable",
							"name": "",
							"type": "address"
						}
					],
					"stateMutability": "view",
					"type": "function"
				}
			],
			"devdoc": {
				"kind": "dev",
				"methods": {},
				"version": 1
			},
			"evm": {
				"assembly": "    /* \"contracts/HotelRoom.sol\":61:1035  contract HotelRoom {... */\n  mstore(0x40, 0x80)\n    /* \"contracts/HotelRoom.sol\":276:375  constructor(){... */\n  callvalue\n  dup1\n  iszero\n  tag_1\n  jumpi\n  0x00\n  dup1\n  revert\ntag_1:\n  pop\n    /* \"contracts/HotelRoom.sol\":316:326  msg.sender */\n  caller\n    /* \"contracts/HotelRoom.sol\":300:305  owner */\n  0x00\n  0x01\n    /* \"contracts/HotelRoom.sol\":300:327  owner = payable(msg.sender) */\n  0x0100\n  exp\n  dup2\n  sload\n  dup2\n  0xffffffffffffffffffffffffffffffffffffffff\n  mul\n  not\n  and\n  swap1\n  dup4\n  0xffffffffffffffffffffffffffffffffffffffff\n  and\n  mul\n  or\n  swap1\n  sstore\n  pop\n    /* \"contracts/HotelRoom.sol\":354:367  Status.Vacant */\n  0x00\n    /* \"contracts/HotelRoom.sol\":338:351  currentStatus */\n  dup1\n  0x00\n    /* \"contracts/HotelRoom.sol\":338:367  currentStatus = Status.Vacant */\n  0x0100\n  exp\n  dup2\n  sload\n  dup2\n  0xff\n  mul\n  not\n  and\n  swap1\n  dup4\n  0x01\n  dup2\n  gt\n  iszero\n  tag_4\n  jumpi\n  tag_5\n  tag_6\n  jump\t// in\ntag_5:\ntag_4:\n  mul\n  or\n  swap1\n  sstore\n  pop\n    /* \"contracts/HotelRoom.sol\":61:1035  contract HotelRoom {... */\n  jump(tag_7)\n    /* \"#utility.yul\":7:187   */\ntag_6:\n    /* \"#utility.yul\":55:132   */\n  0x4e487b7100000000000000000000000000000000000000000000000000000000\n    /* \"#utility.yul\":52:53   */\n  0x00\n    /* \"#utility.yul\":45:133   */\n  mstore\n    /* \"#utility.yul\":152:156   */\n  0x21\n    /* \"#utility.yul\":149:150   */\n  0x04\n    /* \"#utility.yul\":142:157   */\n  mstore\n    /* \"#utility.yul\":176:180   */\n  0x24\n    /* \"#utility.yul\":173:174   */\n  0x00\n    /* \"#utility.yul\":166:181   */\n  revert\n    /* \"contracts/HotelRoom.sol\":61:1035  contract HotelRoom {... */\ntag_7:\n  dataSize(sub_0)\n  dup1\n  dataOffset(sub_0)\n  0x00\n  codecopy\n  0x00\n  return\nstop\n\nsub_0: assembly {\n        /* \"contracts/HotelRoom.sol\":61:1035  contract HotelRoom {... */\n      mstore(0x40, 0x80)\n      jumpi(tag_1, lt(calldatasize, 0x04))\n      shr(0xe0, calldataload(0x00))\n      dup1\n      0x05a8da72\n      eq\n      tag_2\n      jumpi\n      dup1\n      0x8da5cb5b\n      eq\n      tag_3\n      jumpi\n      dup1\n      0xef8a9235\n      eq\n      tag_4\n      jumpi\n    tag_1:\n      0x00\n      dup1\n      revert\n        /* \"contracts/HotelRoom.sol\":684:1026  function book() public payable onlyWhileVacant cost(2 ether){... */\n    tag_2:\n      tag_5\n      tag_6\n      jump\t// in\n    tag_5:\n      stop\n        /* \"contracts/HotelRoom.sol\":239:267  address payable public owner */\n    tag_3:\n      callvalue\n      dup1\n      iszero\n      tag_7\n      jumpi\n      0x00\n      dup1\n      revert\n    tag_7:\n      pop\n      tag_8\n      tag_9\n      jump\t// in\n    tag_8:\n      mload(0x40)\n      tag_10\n      swap2\n      swap1\n      tag_11\n      jump\t// in\n    tag_10:\n      mload(0x40)\n      dup1\n      swap2\n      sub\n      swap1\n      return\n        /* \"contracts/HotelRoom.sol\":124:151  Status public currentStatus */\n    tag_4:\n      callvalue\n      dup1\n      iszero\n      tag_12\n      jumpi\n      0x00\n      dup1\n      revert\n    tag_12:\n      pop\n      tag_13\n      tag_14\n      jump\t// in\n    tag_13:\n      mload(0x40)\n      tag_15\n      swap2\n      swap1\n      tag_16\n      jump\t// in\n    tag_15:\n      mload(0x40)\n      dup1\n      swap2\n      sub\n      swap1\n      return\n        /* \"contracts/HotelRoom.sol\":684:1026  function book() public payable onlyWhileVacant cost(2 ether){... */\n    tag_6:\n        /* \"contracts/HotelRoom.sol\":467:480  Status.Vacant */\n      0x00\n        /* \"contracts/HotelRoom.sol\":450:480  currentStatus == Status.Vacant */\n      0x01\n      dup2\n      gt\n      iszero\n      tag_18\n      jumpi\n      tag_19\n      tag_20\n      jump\t// in\n    tag_19:\n    tag_18:\n        /* \"contracts/HotelRoom.sol\":450:463  currentStatus */\n      0x00\n      dup1\n      sload\n      swap1\n      0x0100\n      exp\n      swap1\n      div\n      0xff\n      and\n        /* \"contracts/HotelRoom.sol\":450:480  currentStatus == Status.Vacant */\n      0x01\n      dup2\n      gt\n      iszero\n      tag_21\n      jumpi\n      tag_22\n      tag_20\n      jump\t// in\n    tag_22:\n    tag_21:\n      eq\n        /* \"contracts/HotelRoom.sol\":442:509  require(currentStatus == Status.Vacant, \"Currently not Available!\") */\n      tag_23\n      jumpi\n      mload(0x40)\n      0x08c379a000000000000000000000000000000000000000000000000000000000\n      dup2\n      mstore\n      0x04\n      add\n      tag_24\n      swap1\n      tag_25\n      jump\t// in\n    tag_24:\n      mload(0x40)\n      dup1\n      swap2\n      sub\n      swap1\n      revert\n    tag_23:\n        /* \"contracts/HotelRoom.sol\":736:743  2 ether */\n      0x1bc16d674ec80000\n        /* \"contracts/HotelRoom.sol\":618:625  _amount */\n      dup1\n        /* \"contracts/HotelRoom.sol\":605:614  msg.value */\n      callvalue\n        /* \"contracts/HotelRoom.sol\":605:625  msg.value >= _amount */\n      lt\n      iszero\n        /* \"contracts/HotelRoom.sol\":597:656  require(msg.value >= _amount, \"Not enough Ether Provided.\") */\n      tag_27\n      jumpi\n      mload(0x40)\n      0x08c379a000000000000000000000000000000000000000000000000000000000\n      dup2\n      mstore\n      0x04\n      add\n      tag_28\n      swap1\n      tag_29\n      jump\t// in\n    tag_28:\n      mload(0x40)\n      dup1\n      swap2\n      sub\n      swap1\n      revert\n    tag_27:\n        /* \"contracts/HotelRoom.sol\":771:786  Status.Occupied */\n      0x01\n        /* \"contracts/HotelRoom.sol\":755:768  currentStatus */\n      0x00\n      dup1\n        /* \"contracts/HotelRoom.sol\":755:786  currentStatus = Status.Occupied */\n      0x0100\n      exp\n      dup2\n      sload\n      dup2\n      0xff\n      mul\n      not\n      and\n      swap1\n      dup4\n      0x01\n      dup2\n      gt\n      iszero\n      tag_31\n      jumpi\n      tag_32\n      tag_20\n      jump\t// in\n    tag_32:\n    tag_31:\n      mul\n      or\n      swap1\n      sstore\n      pop\n        /* \"contracts/HotelRoom.sol\":848:857  bool sent */\n      0x00\n        /* \"contracts/HotelRoom.sol\":862:867  owner */\n      dup1\n      0x01\n      swap1\n      sload\n      swap1\n      0x0100\n      exp\n      swap1\n      div\n      0xffffffffffffffffffffffffffffffffffffffff\n      and\n        /* \"contracts/HotelRoom.sol\":862:872  owner.call */\n      0xffffffffffffffffffffffffffffffffffffffff\n      and\n        /* \"contracts/HotelRoom.sol\":879:888  msg.value */\n      callvalue\n        /* \"contracts/HotelRoom.sol\":862:893  owner.call{value:msg.value}(\"\") */\n      mload(0x40)\n      tag_33\n      swap1\n      tag_34\n      jump\t// in\n    tag_33:\n      0x00\n      mload(0x40)\n      dup1\n      dup4\n      sub\n      dup2\n      dup6\n      dup8\n      gas\n      call\n      swap3\n      pop\n      pop\n      pop\n      returndatasize\n      dup1\n      0x00\n      dup2\n      eq\n      tag_37\n      jumpi\n      mload(0x40)\n      swap2\n      pop\n      and(add(returndatasize, 0x3f), not(0x1f))\n      dup3\n      add\n      0x40\n      mstore\n      returndatasize\n      dup3\n      mstore\n      returndatasize\n      0x00\n      0x20\n      dup5\n      add\n      returndatacopy\n      jump(tag_36)\n    tag_37:\n      0x60\n      swap2\n      pop\n    tag_36:\n      pop\n        /* \"contracts/HotelRoom.sol\":847:893  (bool sent,) = owner.call{value:msg.value}(\"\") */\n      pop\n      swap1\n      pop\n        /* \"contracts/HotelRoom.sol\":912:916  sent */\n      dup1\n        /* \"contracts/HotelRoom.sol\":904:944  require(sent, \"The transaction failed.\") */\n      tag_38\n      jumpi\n      mload(0x40)\n      0x08c379a000000000000000000000000000000000000000000000000000000000\n      dup2\n      mstore\n      0x04\n      add\n      tag_39\n      swap1\n      tag_40\n      jump\t// in\n    tag_39:\n      mload(0x40)\n      dup1\n      swap2\n      sub\n      swap1\n      revert\n    tag_38:\n        /* \"contracts/HotelRoom.sol\":989:1018  Occupy(msg.sender, msg.value) */\n      0xba951166d42eb077151bdecb7cf6027562f04f0143b0c141b1bb0a33eef5d693\n        /* \"contracts/HotelRoom.sol\":996:1006  msg.sender */\n      caller\n        /* \"contracts/HotelRoom.sol\":1008:1017  msg.value */\n      callvalue\n        /* \"contracts/HotelRoom.sol\":989:1018  Occupy(msg.sender, msg.value) */\n      mload(0x40)\n      tag_41\n      swap3\n      swap2\n      swap1\n      tag_42\n      jump\t// in\n    tag_41:\n      mload(0x40)\n      dup1\n      swap2\n      sub\n      swap1\n      log1\n        /* \"contracts/HotelRoom.sol\":744:1026  {... */\n      pop\n        /* \"contracts/HotelRoom.sol\":520:521  _ */\n      pop\n        /* \"contracts/HotelRoom.sol\":684:1026  function book() public payable onlyWhileVacant cost(2 ether){... */\n      jump\t// out\n        /* \"contracts/HotelRoom.sol\":239:267  address payable public owner */\n    tag_9:\n      0x00\n      0x01\n      swap1\n      sload\n      swap1\n      0x0100\n      exp\n      swap1\n      div\n      0xffffffffffffffffffffffffffffffffffffffff\n      and\n      dup2\n      jump\t// out\n        /* \"contracts/HotelRoom.sol\":124:151  Status public currentStatus */\n    tag_14:\n      0x00\n      dup1\n      sload\n      swap1\n      0x0100\n      exp\n      swap1\n      div\n      0xff\n      and\n      dup2\n      jump\t// out\n        /* \"#utility.yul\":7:133   */\n    tag_43:\n        /* \"#utility.yul\":44:51   */\n      0x00\n        /* \"#utility.yul\":84:126   */\n      0xffffffffffffffffffffffffffffffffffffffff\n        /* \"#utility.yul\":77:82   */\n      dup3\n        /* \"#utility.yul\":73:127   */\n      and\n        /* \"#utility.yul\":62:127   */\n      swap1\n      pop\n        /* \"#utility.yul\":7:133   */\n      swap2\n      swap1\n      pop\n      jump\t// out\n        /* \"#utility.yul\":139:243   */\n    tag_44:\n        /* \"#utility.yul\":184:191   */\n      0x00\n        /* \"#utility.yul\":213:237   */\n      tag_67\n        /* \"#utility.yul\":231:236   */\n      dup3\n        /* \"#utility.yul\":213:237   */\n      tag_43\n      jump\t// in\n    tag_67:\n        /* \"#utility.yul\":202:237   */\n      swap1\n      pop\n        /* \"#utility.yul\":139:243   */\n      swap2\n      swap1\n      pop\n      jump\t// out\n        /* \"#utility.yul\":249:391   */\n    tag_45:\n        /* \"#utility.yul\":352:384   */\n      tag_69\n        /* \"#utility.yul\":378:383   */\n      dup2\n        /* \"#utility.yul\":352:384   */\n      tag_44\n      jump\t// in\n    tag_69:\n        /* \"#utility.yul\":347:350   */\n      dup3\n        /* \"#utility.yul\":340:385   */\n      mstore\n        /* \"#utility.yul\":249:391   */\n      pop\n      pop\n      jump\t// out\n        /* \"#utility.yul\":397:651   */\n    tag_11:\n        /* \"#utility.yul\":506:510   */\n      0x00\n        /* \"#utility.yul\":544:546   */\n      0x20\n        /* \"#utility.yul\":533:542   */\n      dup3\n        /* \"#utility.yul\":529:547   */\n      add\n        /* \"#utility.yul\":521:547   */\n      swap1\n      pop\n        /* \"#utility.yul\":557:644   */\n      tag_71\n        /* \"#utility.yul\":641:642   */\n      0x00\n        /* \"#utility.yul\":630:639   */\n      dup4\n        /* \"#utility.yul\":626:643   */\n      add\n        /* \"#utility.yul\":617:623   */\n      dup5\n        /* \"#utility.yul\":557:644   */\n      tag_45\n      jump\t// in\n    tag_71:\n        /* \"#utility.yul\":397:651   */\n      swap3\n      swap2\n      pop\n      pop\n      jump\t// out\n        /* \"#utility.yul\":657:837   */\n    tag_20:\n        /* \"#utility.yul\":705:782   */\n      0x4e487b7100000000000000000000000000000000000000000000000000000000\n        /* \"#utility.yul\":702:703   */\n      0x00\n        /* \"#utility.yul\":695:783   */\n      mstore\n        /* \"#utility.yul\":802:806   */\n      0x21\n        /* \"#utility.yul\":799:800   */\n      0x04\n        /* \"#utility.yul\":792:807   */\n      mstore\n        /* \"#utility.yul\":826:830   */\n      0x24\n        /* \"#utility.yul\":823:824   */\n      0x00\n        /* \"#utility.yul\":816:831   */\n      revert\n        /* \"#utility.yul\":843:956   */\n    tag_46:\n        /* \"#utility.yul\":924:925   */\n      0x02\n        /* \"#utility.yul\":917:922   */\n      dup2\n        /* \"#utility.yul\":914:926   */\n      lt\n        /* \"#utility.yul\":904:950   */\n      tag_74\n      jumpi\n        /* \"#utility.yul\":930:948   */\n      tag_75\n      tag_20\n      jump\t// in\n    tag_75:\n        /* \"#utility.yul\":904:950   */\n    tag_74:\n        /* \"#utility.yul\":843:956   */\n      pop\n      jump\t// out\n        /* \"#utility.yul\":962:1089   */\n    tag_47:\n        /* \"#utility.yul\":1007:1014   */\n      0x00\n        /* \"#utility.yul\":1036:1041   */\n      dup2\n        /* \"#utility.yul\":1025:1041   */\n      swap1\n      pop\n        /* \"#utility.yul\":1042:1083   */\n      tag_77\n        /* \"#utility.yul\":1077:1082   */\n      dup3\n        /* \"#utility.yul\":1042:1083   */\n      tag_46\n      jump\t// in\n    tag_77:\n        /* \"#utility.yul\":962:1089   */\n      swap2\n      swap1\n      pop\n      jump\t// out\n        /* \"#utility.yul\":1095:1222   */\n    tag_48:\n        /* \"#utility.yul\":1151:1160   */\n      0x00\n        /* \"#utility.yul\":1184:1216   */\n      tag_79\n        /* \"#utility.yul\":1210:1215   */\n      dup3\n        /* \"#utility.yul\":1184:1216   */\n      tag_47\n      jump\t// in\n    tag_79:\n        /* \"#utility.yul\":1171:1216   */\n      swap1\n      pop\n        /* \"#utility.yul\":1095:1222   */\n      swap2\n      swap1\n      pop\n      jump\t// out\n        /* \"#utility.yul\":1228:1371   */\n    tag_49:\n        /* \"#utility.yul\":1321:1364   */\n      tag_81\n        /* \"#utility.yul\":1358:1363   */\n      dup2\n        /* \"#utility.yul\":1321:1364   */\n      tag_48\n      jump\t// in\n    tag_81:\n        /* \"#utility.yul\":1316:1319   */\n      dup3\n        /* \"#utility.yul\":1309:1365   */\n      mstore\n        /* \"#utility.yul\":1228:1371   */\n      pop\n      pop\n      jump\t// out\n        /* \"#utility.yul\":1377:1611   */\n    tag_16:\n        /* \"#utility.yul\":1476:1480   */\n      0x00\n        /* \"#utility.yul\":1514:1516   */\n      0x20\n        /* \"#utility.yul\":1503:1512   */\n      dup3\n        /* \"#utility.yul\":1499:1517   */\n      add\n        /* \"#utility.yul\":1491:1517   */\n      swap1\n      pop\n        /* \"#utility.yul\":1527:1604   */\n      tag_83\n        /* \"#utility.yul\":1601:1602   */\n      0x00\n        /* \"#utility.yul\":1590:1599   */\n      dup4\n        /* \"#utility.yul\":1586:1603   */\n      add\n        /* \"#utility.yul\":1577:1583   */\n      dup5\n        /* \"#utility.yul\":1527:1604   */\n      tag_49\n      jump\t// in\n    tag_83:\n        /* \"#utility.yul\":1377:1611   */\n      swap3\n      swap2\n      pop\n      pop\n      jump\t// out\n        /* \"#utility.yul\":1617:1786   */\n    tag_50:\n        /* \"#utility.yul\":1701:1712   */\n      0x00\n        /* \"#utility.yul\":1735:1741   */\n      dup3\n        /* \"#utility.yul\":1730:1733   */\n      dup3\n        /* \"#utility.yul\":1723:1742   */\n      mstore\n        /* \"#utility.yul\":1775:1779   */\n      0x20\n        /* \"#utility.yul\":1770:1773   */\n      dup3\n        /* \"#utility.yul\":1766:1780   */\n      add\n        /* \"#utility.yul\":1751:1780   */\n      swap1\n      pop\n        /* \"#utility.yul\":1617:1786   */\n      swap3\n      swap2\n      pop\n      pop\n      jump\t// out\n        /* \"#utility.yul\":1792:1966   */\n    tag_51:\n        /* \"#utility.yul\":1932:1958   */\n      0x43757272656e746c79206e6f7420417661696c61626c65210000000000000000\n        /* \"#utility.yul\":1928:1929   */\n      0x00\n        /* \"#utility.yul\":1920:1926   */\n      dup3\n        /* \"#utility.yul\":1916:1930   */\n      add\n        /* \"#utility.yul\":1909:1959   */\n      mstore\n        /* \"#utility.yul\":1792:1966   */\n      pop\n      jump\t// out\n        /* \"#utility.yul\":1972:2338   */\n    tag_52:\n        /* \"#utility.yul\":2114:2117   */\n      0x00\n        /* \"#utility.yul\":2135:2202   */\n      tag_87\n        /* \"#utility.yul\":2199:2201   */\n      0x18\n        /* \"#utility.yul\":2194:2197   */\n      dup4\n        /* \"#utility.yul\":2135:2202   */\n      tag_50\n      jump\t// in\n    tag_87:\n        /* \"#utility.yul\":2128:2202   */\n      swap2\n      pop\n        /* \"#utility.yul\":2211:2304   */\n      tag_88\n        /* \"#utility.yul\":2300:2303   */\n      dup3\n        /* \"#utility.yul\":2211:2304   */\n      tag_51\n      jump\t// in\n    tag_88:\n        /* \"#utility.yul\":2329:2331   */\n      0x20\n        /* \"#utility.yul\":2324:2327   */\n      dup3\n        /* \"#utility.yul\":2320:2332   */\n      add\n        /* \"#utility.yul\":2313:2332   */\n      swap1\n      pop\n        /* \"#utility.yul\":1972:2338   */\n      swap2\n      swap1\n      pop\n      jump\t// out\n        /* \"#utility.yul\":2344:2763   */\n    tag_25:\n        /* \"#utility.yul\":2510:2514   */\n      0x00\n        /* \"#utility.yul\":2548:2550   */\n      0x20\n        /* \"#utility.yul\":2537:2546   */\n      dup3\n        /* \"#utility.yul\":2533:2551   */\n      add\n        /* \"#utility.yul\":2525:2551   */\n      swap1\n      pop\n        /* \"#utility.yul\":2597:2606   */\n      dup2\n        /* \"#utility.yul\":2591:2595   */\n      dup2\n        /* \"#utility.yul\":2587:2607   */\n      sub\n        /* \"#utility.yul\":2583:2584   */\n      0x00\n        /* \"#utility.yul\":2572:2581   */\n      dup4\n        /* \"#utility.yul\":2568:2585   */\n      add\n        /* \"#utility.yul\":2561:2608   */\n      mstore\n        /* \"#utility.yul\":2625:2756   */\n      tag_90\n        /* \"#utility.yul\":2751:2755   */\n      dup2\n        /* \"#utility.yul\":2625:2756   */\n      tag_52\n      jump\t// in\n    tag_90:\n        /* \"#utility.yul\":2617:2756   */\n      swap1\n      pop\n        /* \"#utility.yul\":2344:2763   */\n      swap2\n      swap1\n      pop\n      jump\t// out\n        /* \"#utility.yul\":2769:2945   */\n    tag_53:\n        /* \"#utility.yul\":2909:2937   */\n      0x4e6f7420656e6f7567682045746865722050726f76696465642e000000000000\n        /* \"#utility.yul\":2905:2906   */\n      0x00\n        /* \"#utility.yul\":2897:2903   */\n      dup3\n        /* \"#utility.yul\":2893:2907   */\n      add\n        /* \"#utility.yul\":2886:2938   */\n      mstore\n        /* \"#utility.yul\":2769:2945   */\n      pop\n      jump\t// out\n        /* \"#utility.yul\":2951:3317   */\n    tag_54:\n        /* \"#utility.yul\":3093:3096   */\n      0x00\n        /* \"#utility.yul\":3114:3181   */\n      tag_93\n        /* \"#utility.yul\":3178:3180   */\n      0x1a\n        /* \"#utility.yul\":3173:3176   */\n      dup4\n        /* \"#utility.yul\":3114:3181   */\n      tag_50\n      jump\t// in\n    tag_93:\n        /* \"#utility.yul\":3107:3181   */\n      swap2\n      pop\n        /* \"#utility.yul\":3190:3283   */\n      tag_94\n        /* \"#utility.yul\":3279:3282   */\n      dup3\n        /* \"#utility.yul\":3190:3283   */\n      tag_53\n      jump\t// in\n    tag_94:\n        /* \"#utility.yul\":3308:3310   */\n      0x20\n        /* \"#utility.yul\":3303:3306   */\n      dup3\n        /* \"#utility.yul\":3299:3311   */\n      add\n        /* \"#utility.yul\":3292:3311   */\n      swap1\n      pop\n        /* \"#utility.yul\":2951:3317   */\n      swap2\n      swap1\n      pop\n      jump\t// out\n        /* \"#utility.yul\":3323:3742   */\n    tag_29:\n        /* \"#utility.yul\":3489:3493   */\n      0x00\n        /* \"#utility.yul\":3527:3529   */\n      0x20\n        /* \"#utility.yul\":3516:3525   */\n      dup3\n        /* \"#utility.yul\":3512:3530   */\n      add\n        /* \"#utility.yul\":3504:3530   */\n      swap1\n      pop\n        /* \"#utility.yul\":3576:3585   */\n      dup2\n        /* \"#utility.yul\":3570:3574   */\n      dup2\n        /* \"#utility.yul\":3566:3586   */\n      sub\n        /* \"#utility.yul\":3562:3563   */\n      0x00\n        /* \"#utility.yul\":3551:3560   */\n      dup4\n        /* \"#utility.yul\":3547:3564   */\n      add\n        /* \"#utility.yul\":3540:3587   */\n      mstore\n        /* \"#utility.yul\":3604:3735   */\n      tag_96\n        /* \"#utility.yul\":3730:3734   */\n      dup2\n        /* \"#utility.yul\":3604:3735   */\n      tag_54\n      jump\t// in\n    tag_96:\n        /* \"#utility.yul\":3596:3735   */\n      swap1\n      pop\n        /* \"#utility.yul\":3323:3742   */\n      swap2\n      swap1\n      pop\n      jump\t// out\n        /* \"#utility.yul\":3748:3895   */\n    tag_55:\n        /* \"#utility.yul\":3849:3860   */\n      0x00\n        /* \"#utility.yul\":3886:3889   */\n      dup2\n        /* \"#utility.yul\":3871:3889   */\n      swap1\n      pop\n        /* \"#utility.yul\":3748:3895   */\n      swap3\n      swap2\n      pop\n      pop\n      jump\t// out\n        /* \"#utility.yul\":3901:4015   */\n    tag_56:\n      pop\n      jump\t// out\n        /* \"#utility.yul\":4021:4419   */\n    tag_57:\n        /* \"#utility.yul\":4180:4183   */\n      0x00\n        /* \"#utility.yul\":4201:4284   */\n      tag_100\n        /* \"#utility.yul\":4282:4283   */\n      0x00\n        /* \"#utility.yul\":4277:4280   */\n      dup4\n        /* \"#utility.yul\":4201:4284   */\n      tag_55\n      jump\t// in\n    tag_100:\n        /* \"#utility.yul\":4194:4284   */\n      swap2\n      pop\n        /* \"#utility.yul\":4293:4386   */\n      tag_101\n        /* \"#utility.yul\":4382:4385   */\n      dup3\n        /* \"#utility.yul\":4293:4386   */\n      tag_56\n      jump\t// in\n    tag_101:\n        /* \"#utility.yul\":4411:4412   */\n      0x00\n        /* \"#utility.yul\":4406:4409   */\n      dup3\n        /* \"#utility.yul\":4402:4413   */\n      add\n        /* \"#utility.yul\":4395:4413   */\n      swap1\n      pop\n        /* \"#utility.yul\":4021:4419   */\n      swap2\n      swap1\n      pop\n      jump\t// out\n        /* \"#utility.yul\":4425:4804   */\n    tag_34:\n        /* \"#utility.yul\":4609:4612   */\n      0x00\n        /* \"#utility.yul\":4631:4778   */\n      tag_103\n        /* \"#utility.yul\":4774:4777   */\n      dup3\n        /* \"#utility.yul\":4631:4778   */\n      tag_57\n      jump\t// in\n    tag_103:\n        /* \"#utility.yul\":4624:4778   */\n      swap2\n      pop\n        /* \"#utility.yul\":4795:4798   */\n      dup2\n        /* \"#utility.yul\":4788:4798   */\n      swap1\n      pop\n        /* \"#utility.yul\":4425:4804   */\n      swap2\n      swap1\n      pop\n      jump\t// out\n        /* \"#utility.yul\":4810:4983   */\n    tag_58:\n        /* \"#utility.yul\":4950:4975   */\n      0x546865207472616e73616374696f6e206661696c65642e000000000000000000\n        /* \"#utility.yul\":4946:4947   */\n      0x00\n        /* \"#utility.yul\":4938:4944   */\n      dup3\n        /* \"#utility.yul\":4934:4948   */\n      add\n        /* \"#utility.yul\":4927:4976   */\n      mstore\n        /* \"#utility.yul\":4810:4983   */\n      pop\n      jump\t// out\n        /* \"#utility.yul\":4989:5355   */\n    tag_59:\n        /* \"#utility.yul\":5131:5134   */\n      0x00\n        /* \"#utility.yul\":5152:5219   */\n      tag_106\n        /* \"#utility.yul\":5216:5218   */\n      0x17\n        /* \"#utility.yul\":5211:5214   */\n      dup4\n        /* \"#utility.yul\":5152:5219   */\n      tag_50\n      jump\t// in\n    tag_106:\n        /* \"#utility.yul\":5145:5219   */\n      swap2\n      pop\n        /* \"#utility.yul\":5228:5321   */\n      tag_107\n        /* \"#utility.yul\":5317:5320   */\n      dup3\n        /* \"#utility.yul\":5228:5321   */\n      tag_58\n      jump\t// in\n    tag_107:\n        /* \"#utility.yul\":5346:5348   */\n      0x20\n        /* \"#utility.yul\":5341:5344   */\n      dup3\n        /* \"#utility.yul\":5337:5349   */\n      add\n        /* \"#utility.yul\":5330:5349   */\n      swap1\n      pop\n        /* \"#utility.yul\":4989:5355   */\n      swap2\n      swap1\n      pop\n      jump\t// out\n        /* \"#utility.yul\":5361:5780   */\n    tag_40:\n        /* \"#utility.yul\":5527:5531   */\n      0x00\n        /* \"#utility.yul\":5565:5567   */\n      0x20\n        /* \"#utility.yul\":5554:5563   */\n      dup3\n        /* \"#utility.yul\":5550:5568   */\n      add\n        /* \"#utility.yul\":5542:5568   */\n      swap1\n      pop\n        /* \"#utility.yul\":5614:5623   */\n      dup2\n        /* \"#utility.yul\":5608:5612   */\n      dup2\n        /* \"#utility.yul\":5604:5624   */\n      sub\n        /* \"#utility.yul\":5600:5601   */\n      0x00\n        /* \"#utility.yul\":5589:5598   */\n      dup4\n        /* \"#utility.yul\":5585:5602   */\n      add\n        /* \"#utility.yul\":5578:5625   */\n      mstore\n        /* \"#utility.yul\":5642:5773   */\n      tag_109\n        /* \"#utility.yul\":5768:5772   */\n      dup2\n        /* \"#utility.yul\":5642:5773   */\n      tag_59\n      jump\t// in\n    tag_109:\n        /* \"#utility.yul\":5634:5773   */\n      swap1\n      pop\n        /* \"#utility.yul\":5361:5780   */\n      swap2\n      swap1\n      pop\n      jump\t// out\n        /* \"#utility.yul\":5786:5882   */\n    tag_60:\n        /* \"#utility.yul\":5823:5830   */\n      0x00\n        /* \"#utility.yul\":5852:5876   */\n      tag_111\n        /* \"#utility.yul\":5870:5875   */\n      dup3\n        /* \"#utility.yul\":5852:5876   */\n      tag_43\n      jump\t// in\n    tag_111:\n        /* \"#utility.yul\":5841:5876   */\n      swap1\n      pop\n        /* \"#utility.yul\":5786:5882   */\n      swap2\n      swap1\n      pop\n      jump\t// out\n        /* \"#utility.yul\":5888:6006   */\n    tag_61:\n        /* \"#utility.yul\":5975:5999   */\n      tag_113\n        /* \"#utility.yul\":5993:5998   */\n      dup2\n        /* \"#utility.yul\":5975:5999   */\n      tag_60\n      jump\t// in\n    tag_113:\n        /* \"#utility.yul\":5970:5973   */\n      dup3\n        /* \"#utility.yul\":5963:6000   */\n      mstore\n        /* \"#utility.yul\":5888:6006   */\n      pop\n      pop\n      jump\t// out\n        /* \"#utility.yul\":6012:6089   */\n    tag_62:\n        /* \"#utility.yul\":6049:6056   */\n      0x00\n        /* \"#utility.yul\":6078:6083   */\n      dup2\n        /* \"#utility.yul\":6067:6083   */\n      swap1\n      pop\n        /* \"#utility.yul\":6012:6089   */\n      swap2\n      swap1\n      pop\n      jump\t// out\n        /* \"#utility.yul\":6095:6213   */\n    tag_63:\n        /* \"#utility.yul\":6182:6206   */\n      tag_116\n        /* \"#utility.yul\":6200:6205   */\n      dup2\n        /* \"#utility.yul\":6182:6206   */\n      tag_62\n      jump\t// in\n    tag_116:\n        /* \"#utility.yul\":6177:6180   */\n      dup3\n        /* \"#utility.yul\":6170:6207   */\n      mstore\n        /* \"#utility.yul\":6095:6213   */\n      pop\n      pop\n      jump\t// out\n        /* \"#utility.yul\":6219:6551   */\n    tag_42:\n        /* \"#utility.yul\":6340:6344   */\n      0x00\n        /* \"#utility.yul\":6378:6380   */\n      0x40\n        /* \"#utility.yul\":6367:6376   */\n      dup3\n        /* \"#utility.yul\":6363:6381   */\n      add\n        /* \"#utility.yul\":6355:6381   */\n      swap1\n      pop\n        /* \"#utility.yul\":6391:6462   */\n      tag_118\n        /* \"#utility.yul\":6459:6460   */\n      0x00\n        /* \"#utility.yul\":6448:6457   */\n      dup4\n        /* \"#utility.yul\":6444:6461   */\n      add\n        /* \"#utility.yul\":6435:6441   */\n      dup6\n        /* \"#utility.yul\":6391:6462   */\n      tag_61\n      jump\t// in\n    tag_118:\n        /* \"#utility.yul\":6472:6544   */\n      tag_119\n        /* \"#utility.yul\":6540:6542   */\n      0x20\n        /* \"#utility.yul\":6529:6538   */\n      dup4\n        /* \"#utility.yul\":6525:6543   */\n      add\n        /* \"#utility.yul\":6516:6522   */\n      dup5\n        /* \"#utility.yul\":6472:6544   */\n      tag_63\n      jump\t// in\n    tag_119:\n        /* \"#utility.yul\":6219:6551   */\n      swap4\n      swap3\n      pop\n      pop\n      pop\n      jump\t// out\n\n    auxdata: 0xa26469706673582212209d411fd8e4eed93e6b16ce9879e0dca593f940ba294fda554438992172d4abbf64736f6c634300081a0033\n}\n",
				"bytecode": {
					"linkReferences": {},
					"object": "6080604052348015600e575f80fd5b50335f60016101000a81548173ffffffffffffffffffffffffffffffffffffffff021916908373ffffffffffffffffffffffffffffffffffffffff1602179055505f805f6101000a81548160ff02191690836001811115606f57606e6078565b5b021790555060a5565b7f4e487b71000000000000000000000000000000000000000000000000000000005f52602160045260245ffd5b6105b9806100b25f395ff3fe608060405260043610610033575f3560e01c806305a8da72146100375780638da5cb5b14610041578063ef8a92351461006b575b5f80fd5b61003f610095565b005b34801561004c575f80fd5b50610055610282565b60405161006291906102f6565b60405180910390f35b348015610076575f80fd5b5061007f6102a7565b60405161008c9190610382565b60405180910390f35b5f60018111156100a8576100a761030f565b5b5f8054906101000a900460ff1660018111156100c7576100c661030f565b5b14610107576040517f08c379a00000000000000000000000000000000000000000000000000000000081526004016100fe906103f5565b60405180910390fd5b671bc16d674ec8000080341015610153576040517f08c379a000000000000000000000000000000000000000000000000000000000815260040161014a9061045d565b60405180910390fd5b60015f806101000a81548160ff021916908360018111156101775761017661030f565b5b02179055505f8060019054906101000a900473ffffffffffffffffffffffffffffffffffffffff1673ffffffffffffffffffffffffffffffffffffffff16346040516101c2906104a8565b5f6040518083038185875af1925050503d805f81146101fc576040519150601f19603f3d011682016040523d82523d5f602084013e610201565b606091505b5050905080610245576040517f08c379a000000000000000000000000000000000000000000000000000000000815260040161023c90610506565b60405180910390fd5b7fba951166d42eb077151bdecb7cf6027562f04f0143b0c141b1bb0a33eef5d693333460405161027692919061055c565b60405180910390a15050565b5f60019054906101000a900473ffffffffffffffffffffffffffffffffffffffff1681565b5f8054906101000a900460ff1681565b5f73ffffffffffffffffffffffffffffffffffffffff82169050919050565b5f6102e0826102b7565b9050919050565b6102f0816102d6565b82525050565b5f6020820190506103095f8301846102e7565b92915050565b7f4e487b71000000000000000000000000000000000000000000000000000000005f52602160045260245ffd5b6002811061034d5761034c61030f565b5b50565b5f81905061035d8261033c565b919050565b5f61036c82610350565b9050919050565b61037c81610362565b82525050565b5f6020820190506103955f830184610373565b92915050565b5f82825260208201905092915050565b7f43757272656e746c79206e6f7420417661696c61626c652100000000000000005f82015250565b5f6103df60188361039b565b91506103ea826103ab565b602082019050919050565b5f6020820190508181035f83015261040c816103d3565b9050919050565b7f4e6f7420656e6f7567682045746865722050726f76696465642e0000000000005f82015250565b5f610447601a8361039b565b915061045282610413565b602082019050919050565b5f6020820190508181035f8301526104748161043b565b9050919050565b5f81905092915050565b50565b5f6104935f8361047b565b915061049e82610485565b5f82019050919050565b5f6104b282610488565b9150819050919050565b7f546865207472616e73616374696f6e206661696c65642e0000000000000000005f82015250565b5f6104f060178361039b565b91506104fb826104bc565b602082019050919050565b5f6020820190508181035f83015261051d816104e4565b9050919050565b5f61052e826102b7565b9050919050565b61053e81610524565b82525050565b5f819050919050565b61055681610544565b82525050565b5f60408201905061056f5f830185610535565b61057c602083018461054d565b939250505056fea26469706673582212209d411fd8e4eed93e6b16ce9879e0dca593f940ba294fda554438992172d4abbf64736f6c634300081a0033",
					"opcodes": "PUSH1 0x80 PUSH1 0x40 MSTORE CALLVALUE DUP1 ISZERO PUSH1 0xE JUMPI PUSH0 DUP1 REVERT JUMPDEST POP CALLER PUSH0 PUSH1 0x1 PUSH2 0x100 EXP DUP2 SLOAD DUP2 PUSH20 0xFFFFFFFFFFFFFFFFFFFFFFFFFFFFFFFFFFFFFFFF MUL NOT AND SWAP1 DUP4 PUSH20 0xFFFFFFFFFFFFFFFFFFFFFFFFFFFFFFFFFFFFFFFF AND MUL OR SWAP1 SSTORE POP PUSH0 DUP1 PUSH0 PUSH2 0x100 EXP DUP2 SLOAD DUP2 PUSH1 0xFF MUL NOT AND SWAP1 DUP4 PUSH1 0x1 DUP2 GT ISZERO PUSH1 0x6F JUMPI PUSH1 0x6E PUSH1 0x78 JUMP JUMPDEST JUMPDEST MUL OR SWAP1 SSTORE POP PUSH1 0xA5 JUMP JUMPDEST PUSH32 0x4E487B7100000000000000000000000000000000000000000000000000000000 PUSH0 MSTORE PUSH1 0x21 PUSH1 0x4 MSTORE PUSH1 0x24 PUSH0 REVERT JUMPDEST PUSH2 0x5B9 DUP1 PUSH2 0xB2 PUSH0 CODECOPY PUSH0 RETURN INVALID PUSH1 0x80 PUSH1 0x40 MSTORE PUSH1 0x4 CALLDATASIZE LT PUSH2 0x33 JUMPI PUSH0 CALLDATALOAD PUSH1 0xE0 SHR DUP1 PUSH4 0x5A8DA72 EQ PUSH2 0x37 JUMPI DUP1 PUSH4 0x8DA5CB5B EQ PUSH2 0x41 JUMPI DUP1 PUSH4 0xEF8A9235 EQ PUSH2 0x6B JUMPI JUMPDEST PUSH0 DUP1 REVERT JUMPDEST PUSH2 0x3F PUSH2 0x95 JUMP JUMPDEST STOP JUMPDEST CALLVALUE DUP1 ISZERO PUSH2 0x4C JUMPI PUSH0 DUP1 REVERT JUMPDEST POP PUSH2 0x55 PUSH2 0x282 JUMP JUMPDEST PUSH1 0x40 MLOAD PUSH2 0x62 SWAP2 SWAP1 PUSH2 0x2F6 JUMP JUMPDEST PUSH1 0x40 MLOAD DUP1 SWAP2 SUB SWAP1 RETURN JUMPDEST CALLVALUE DUP1 ISZERO PUSH2 0x76 JUMPI PUSH0 DUP1 REVERT JUMPDEST POP PUSH2 0x7F PUSH2 0x2A7 JUMP JUMPDEST PUSH1 0x40 MLOAD PUSH2 0x8C SWAP2 SWAP1 PUSH2 0x382 JUMP JUMPDEST PUSH1 0x40 MLOAD DUP1 SWAP2 SUB SWAP1 RETURN JUMPDEST PUSH0 PUSH1 0x1 DUP2 GT ISZERO PUSH2 0xA8 JUMPI PUSH2 0xA7 PUSH2 0x30F JUMP JUMPDEST JUMPDEST PUSH0 DUP1 SLOAD SWAP1 PUSH2 0x100 EXP SWAP1 DIV PUSH1 0xFF AND PUSH1 0x1 DUP2 GT ISZERO PUSH2 0xC7 JUMPI PUSH2 0xC6 PUSH2 0x30F JUMP JUMPDEST JUMPDEST EQ PUSH2 0x107 JUMPI PUSH1 0x40 MLOAD PUSH32 0x8C379A000000000000000000000000000000000000000000000000000000000 DUP2 MSTORE PUSH1 0x4 ADD PUSH2 0xFE SWAP1 PUSH2 0x3F5 JUMP JUMPDEST PUSH1 0x40 MLOAD DUP1 SWAP2 SUB SWAP1 REVERT JUMPDEST PUSH8 0x1BC16D674EC80000 DUP1 CALLVALUE LT ISZERO PUSH2 0x153 JUMPI PUSH1 0x40 MLOAD PUSH32 0x8C379A000000000000000000000000000000000000000000000000000000000 DUP2 MSTORE PUSH1 0x4 ADD PUSH2 0x14A SWAP1 PUSH2 0x45D JUMP JUMPDEST PUSH1 0x40 MLOAD DUP1 SWAP2 SUB SWAP1 REVERT JUMPDEST PUSH1 0x1 PUSH0 DUP1 PUSH2 0x100 EXP DUP2 SLOAD DUP2 PUSH1 0xFF MUL NOT AND SWAP1 DUP4 PUSH1 0x1 DUP2 GT ISZERO PUSH2 0x177 JUMPI PUSH2 0x176 PUSH2 0x30F JUMP JUMPDEST JUMPDEST MUL OR SWAP1 SSTORE POP PUSH0 DUP1 PUSH1 0x1 SWAP1 SLOAD SWAP1 PUSH2 0x100 EXP SWAP1 DIV PUSH20 0xFFFFFFFFFFFFFFFFFFFFFFFFFFFFFFFFFFFFFFFF AND PUSH20 0xFFFFFFFFFFFFFFFFFFFFFFFFFFFFFFFFFFFFFFFF AND CALLVALUE PUSH1 0x40 MLOAD PUSH2 0x1C2 SWAP1 PUSH2 0x4A8 JUMP JUMPDEST PUSH0 PUSH1 0x40 MLOAD DUP1 DUP4 SUB DUP2 DUP6 DUP8 GAS CALL SWAP3 POP POP POP RETURNDATASIZE DUP1 PUSH0 DUP2 EQ PUSH2 0x1FC JUMPI PUSH1 0x40 MLOAD SWAP2 POP PUSH1 0x1F NOT PUSH1 0x3F RETURNDATASIZE ADD AND DUP3 ADD PUSH1 0x40 MSTORE RETURNDATASIZE DUP3 MSTORE RETURNDATASIZE PUSH0 PUSH1 0x20 DUP5 ADD RETURNDATACOPY PUSH2 0x201 JUMP JUMPDEST PUSH1 0x60 SWAP2 POP JUMPDEST POP POP SWAP1 POP DUP1 PUSH2 0x245 JUMPI PUSH1 0x40 MLOAD PUSH32 0x8C379A000000000000000000000000000000000000000000000000000000000 DUP2 MSTORE PUSH1 0x4 ADD PUSH2 0x23C SWAP1 PUSH2 0x506 JUMP JUMPDEST PUSH1 0x40 MLOAD DUP1 SWAP2 SUB SWAP1 REVERT JUMPDEST PUSH32 0xBA951166D42EB077151BDECB7CF6027562F04F0143B0C141B1BB0A33EEF5D693 CALLER CALLVALUE PUSH1 0x40 MLOAD PUSH2 0x276 SWAP3 SWAP2 SWAP1 PUSH2 0x55C JUMP JUMPDEST PUSH1 0x40 MLOAD DUP1 SWAP2 SUB SWAP1 LOG1 POP POP JUMP JUMPDEST PUSH0 PUSH1 0x1 SWAP1 SLOAD SWAP1 PUSH2 0x100 EXP SWAP1 DIV PUSH20 0xFFFFFFFFFFFFFFFFFFFFFFFFFFFFFFFFFFFFFFFF AND DUP2 JUMP JUMPDEST PUSH0 DUP1 SLOAD SWAP1 PUSH2 0x100 EXP SWAP1 DIV PUSH1 0xFF AND DUP2 JUMP JUMPDEST PUSH0 PUSH20 0xFFFFFFFFFFFFFFFFFFFFFFFFFFFFFFFFFFFFFFFF DUP3 AND SWAP1 POP SWAP2 SWAP1 POP JUMP JUMPDEST PUSH0 PUSH2 0x2E0 DUP3 PUSH2 0x2B7 JUMP JUMPDEST SWAP1 POP SWAP2 SWAP1 POP JUMP JUMPDEST PUSH2 0x2F0 DUP2 PUSH2 0x2D6 JUMP JUMPDEST DUP3 MSTORE POP POP JUMP JUMPDEST PUSH0 PUSH1 0x20 DUP3 ADD SWAP1 POP PUSH2 0x309 PUSH0 DUP4 ADD DUP5 PUSH2 0x2E7 JUMP JUMPDEST SWAP3 SWAP2 POP POP JUMP JUMPDEST PUSH32 0x4E487B7100000000000000000000000000000000000000000000000000000000 PUSH0 MSTORE PUSH1 0x21 PUSH1 0x4 MSTORE PUSH1 0x24 PUSH0 REVERT JUMPDEST PUSH1 0x2 DUP2 LT PUSH2 0x34D JUMPI PUSH2 0x34C PUSH2 0x30F JUMP JUMPDEST JUMPDEST POP JUMP JUMPDEST PUSH0 DUP2 SWAP1 POP PUSH2 0x35D DUP3 PUSH2 0x33C JUMP JUMPDEST SWAP2 SWAP1 POP JUMP JUMPDEST PUSH0 PUSH2 0x36C DUP3 PUSH2 0x350 JUMP JUMPDEST SWAP1 POP SWAP2 SWAP1 POP JUMP JUMPDEST PUSH2 0x37C DUP2 PUSH2 0x362 JUMP JUMPDEST DUP3 MSTORE POP POP JUMP JUMPDEST PUSH0 PUSH1 0x20 DUP3 ADD SWAP1 POP PUSH2 0x395 PUSH0 DUP4 ADD DUP5 PUSH2 0x373 JUMP JUMPDEST SWAP3 SWAP2 POP POP JUMP JUMPDEST PUSH0 DUP3 DUP3 MSTORE PUSH1 0x20 DUP3 ADD SWAP1 POP SWAP3 SWAP2 POP POP JUMP JUMPDEST PUSH32 0x43757272656E746C79206E6F7420417661696C61626C65210000000000000000 PUSH0 DUP3 ADD MSTORE POP JUMP JUMPDEST PUSH0 PUSH2 0x3DF PUSH1 0x18 DUP4 PUSH2 0x39B JUMP JUMPDEST SWAP2 POP PUSH2 0x3EA DUP3 PUSH2 0x3AB JUMP JUMPDEST PUSH1 0x20 DUP3 ADD SWAP1 POP SWAP2 SWAP1 POP JUMP JUMPDEST PUSH0 PUSH1 0x20 DUP3 ADD SWAP1 POP DUP2 DUP2 SUB PUSH0 DUP4 ADD MSTORE PUSH2 0x40C DUP2 PUSH2 0x3D3 JUMP JUMPDEST SWAP1 POP SWAP2 SWAP1 POP JUMP JUMPDEST PUSH32 0x4E6F7420656E6F7567682045746865722050726F76696465642E000000000000 PUSH0 DUP3 ADD MSTORE POP JUMP JUMPDEST PUSH0 PUSH2 0x447 PUSH1 0x1A DUP4 PUSH2 0x39B JUMP JUMPDEST SWAP2 POP PUSH2 0x452 DUP3 PUSH2 0x413 JUMP JUMPDEST PUSH1 0x20 DUP3 ADD SWAP1 POP SWAP2 SWAP1 POP JUMP JUMPDEST PUSH0 PUSH1 0x20 DUP3 ADD SWAP1 POP DUP2 DUP2 SUB PUSH0 DUP4 ADD MSTORE PUSH2 0x474 DUP2 PUSH2 0x43B JUMP JUMPDEST SWAP1 POP SWAP2 SWAP1 POP JUMP JUMPDEST PUSH0 DUP2 SWAP1 POP SWAP3 SWAP2 POP POP JUMP JUMPDEST POP JUMP JUMPDEST PUSH0 PUSH2 0x493 PUSH0 DUP4 PUSH2 0x47B JUMP JUMPDEST SWAP2 POP PUSH2 0x49E DUP3 PUSH2 0x485 JUMP JUMPDEST PUSH0 DUP3 ADD SWAP1 POP SWAP2 SWAP1 POP JUMP JUMPDEST PUSH0 PUSH2 0x4B2 DUP3 PUSH2 0x488 JUMP JUMPDEST SWAP2 POP DUP2 SWAP1 POP SWAP2 SWAP1 POP JUMP JUMPDEST PUSH32 0x546865207472616E73616374696F6E206661696C65642E000000000000000000 PUSH0 DUP3 ADD MSTORE POP JUMP JUMPDEST PUSH0 PUSH2 0x4F0 PUSH1 0x17 DUP4 PUSH2 0x39B JUMP JUMPDEST SWAP2 POP PUSH2 0x4FB DUP3 PUSH2 0x4BC JUMP JUMPDEST PUSH1 0x20 DUP3 ADD SWAP1 POP SWAP2 SWAP1 POP JUMP JUMPDEST PUSH0 PUSH1 0x20 DUP3 ADD SWAP1 POP DUP2 DUP2 SUB PUSH0 DUP4 ADD MSTORE PUSH2 0x51D DUP2 PUSH2 0x4E4 JUMP JUMPDEST SWAP1 POP SWAP2 SWAP1 POP JUMP JUMPDEST PUSH0 PUSH2 0x52E DUP3 PUSH2 0x2B7 JUMP JUMPDEST SWAP1 POP SWAP2 SWAP1 POP JUMP JUMPDEST PUSH2 0x53E DUP2 PUSH2 0x524 JUMP JUMPDEST DUP3 MSTORE POP POP JUMP JUMPDEST PUSH0 DUP2 SWAP1 POP SWAP2 SWAP1 POP JUMP JUMPDEST PUSH2 0x556 DUP2 PUSH2 0x544 JUMP JUMPDEST DUP3 MSTORE POP POP JUMP JUMPDEST PUSH0 PUSH1 0x40 DUP3 ADD SWAP1 POP PUSH2 0x56F PUSH0 DUP4 ADD DUP6 PUSH2 0x535 JUMP JUMPDEST PUSH2 0x57C PUSH1 0x20 DUP4 ADD DUP5 PUSH2 0x54D JUMP JUMPDEST SWAP4 SWAP3 POP POP POP JUMP INVALID LOG2 PUSH5 0x6970667358 0x22 SLT KECCAK256 SWAP14 COINBASE 0x1F 0xD8 0xE4 0xEE 0xD9 RETURNDATACOPY PUSH12 0x16CE9879E0DCA593F940BA29 0x4F 0xDA SSTORE PREVRANDAO CODESIZE SWAP10 0x21 PUSH19 0xD4ABBF64736F6C634300081A00330000000000 "
				},
				"gasEstimates": {
					"creation": {
						"codeDepositCost": "293000",
						"executionCost": "48941",
						"totalCost": "341941"
					},
					"external": {
						"book()": "infinite",
						"currentStatus()": "2573",
						"owner()": "2558"
					}
				},
				"methodIdentifiers": {
					"book()": "05a8da72",
					"currentStatus()": "ef8a9235",
					"owner()": "8da5cb5b"
				}
			},
			"storageLayout": {
				"storage": [
					{
						"astId": 7,
						"contract": "contracts/HotelRoom.sol:HotelRoom",
						"label": "currentStatus",
						"offset": 0,
						"slot": "0",
						"type": "t_enum(Status)4"
					},
					{
						"astId": 15,
						"contract": "contracts/HotelRoom.sol:HotelRoom",
						"label": "owner",
						"offset": 1,
						"slot": "0",
						"type": "t_address_payable"
					}
				],
				"types": {
					"t_address_payable": {
						"encoding": "inplace",
						"label": "address payable",
						"numberOfBytes": "20"
					},
					"t_enum(Status)4": {
						"encoding": "inplace",
						"label": "enum HotelRoom.Status",
						"numberOfBytes": "1"
					}
				}
			},
			"userdoc": {
				"kind": "user",
				"methods": {},
				"version": 1
			}
		}
	}
}